:100000000C94C8050C940F060C940F060C946B29E5
:100010000C940F060C940F060C940F060C940F060C
:100020000C940F060C940F060C949F240C94DB2365
:100030000C943E1B0C940F060C940F060C940F06A8
:100040000C940F060C940F060C940F060C940F06DC
:100050000C940F060C94B91A0C940F060C940F060E
:100060000C940F060C940F060C940F060C940F06BC
:100070000C940F060C940F060C940F060C940F06AC
:100080000C940F060C940F060C940F060C940F069C
:100090000C940F060C940F060C940F060C940F068C
:1000A0000C940F060C940F060C940F069608A608E5
:1000B0009908A6089C08A608A608A6089F08A608EE
:1000C0009F08A6089F08A6089F08240A270A410A35
:1000D0004E0A550A750A780AAC0ACE0A6B0B6B0BEE
:1000E000D90ADB0ADF0A030B240B270B2A0B4C0B64
:1000F0000C170C17461746179F174619461946192D
:10010000BB179918AA18AA18131D131D261D261D02
:100110001C1D261D261D261D131D131D211D261DFC
:10012000261D211DEF211622BD231622BD2362228A
:100130008522BD237A238A2300DA0281FFD9F1DBED
:1001400020A4A62EAF00A0C000A1C800AED580A8F4
:100150001FD300408D14200041646A7573740052EF
:1001600061697365004C6F776572004465666175FF
:100170006C74004C617965723A20008081828384BE
:1001800085868788898A8B8C8D8E8F9091929394A7
:10019000A0A1A2A3A4A5A6A7A8A9AAABACADAEAFE7
:1001A000B0B1B2B3B4C0C1C2C3C4C5C6C7C8C9CA5E
:1001B000CBCCCDCECFD0D1D2D3D40000AE00010174
:1001C0000101010101010102020202020202020216
:1001D00003030303030303030404040404040405E6
:1001E00005050505060606060607070707070808AA
:1001F0000808090909090A0A0A0B0B0B0C0C0C0D5B
:100200000D0D0E0E0E0F0F0F1010111111121213F3
:10021000131414151516161717181819191A1A1B6E
:100220001B1C1D1D1E1E1F202021222223242425CD
:100230002626272829292A2B2C2D2D2E2F30313206
:1002400032333435363738393A3B3C3D3E3F404116
:1002500042434445464748494A4C4D4E4F505153FE
:1002600054555658595A5B5D5E5F616264656668B5
:10027000696B6C6D6F7072737577787A7B7D7E8039
:1002800082838587888A8C8E8F91939596989A9C85
:100290009EA0A2A3A5A7A9ABADAFB1B3B5B7BABC99
:1002A000BEC0C2C4C6C9CBCDCFD1D4D6D8DBDDDF6A
:1002B000E2E4E7E9EBEEF0F3F5F8FAFDFF2B0014CA
:1002C000001A00080015001700E0000400160007DF
:1002D0000009000A00E1001D001B000600190005CE
:1002E00000000000000000E300105F2C002A001353
:1002F0000012000C0018001C00340033000F000E28
:10030000000D000B002900380037003600100011E6
:1003100000000000000000E600115F28002B001E16
:10032000001F00200021002200E00000000000006B
:100330000000000000E100000000000000000000DC
:1003400000000000000000E30001002C002A00274C
:10035000002600250024002300000000004F00526A
:1003600000510050000000000000000000000000EC
:1003700000000000000000E600010028002B001E25
:10038000021F02200221022202E000000000000001
:100390000000000000E1000000000000000000007C
:1003A00000000000000000E30001002C002A0027EC
:1003B0000226022502240223023500310030002FDC
:1003C000002E002D003502310230022F022E022DA8
:1003D00002000000000000E60001002800005C00B0
:1003E000000000000000000000C25CC55CC75CC9E2
:1003F0005C00000000C35CC65CC85CCA5C00000016
:1004000000000000000000E30001002C00000000DC
:1004100000000000000000000000000000000000DC
:1004200000000000000000000000000000000000CC
:1004300000000000000000E6000100280000AF00FE
:1004400000000000000000000000000000000000AC
:10045000000000000000000000000000000000009C
:100460000000007E0F00D4FFFFFFC70000007800EF
:10047000000000000000002A2B28000000000000FF
:100480000000000000000000000029000000002C17
:100490001E3420212224342627252E362D373827B6
:1004A0001E1F202122232425263333362E37381FC2
:1004B0000405060708090A0B0C0D0E0F1011121384
:1004C0001415161718191A1B1C1D2F3130232D3522
:1004D0000405060708090A0B0C0D0E0F1011121364
:1004E0001415161718191A1B1C1D2F3130354C0501
:1004F000010980A101850319012AB700150126B75A
:1005000000950175108100C0050C0901A101850449
:1005100019012AA002150126A0029501751081007B
:10052000C005010906A1018505050719E029E715A0
:100530000025019508750181020507190029EF15AD
:1005400000250195F075018102050819012905951D
:100550000575019102950175039101C00660FF09BF
:1005600061A1010962150026FF009520750881022E
:100570000963150026FF00952075089102C005014A
:100580000906A101050719E029E7150025019508CD
:10059000750181029501750881010507190029FF80
:1005A000150026FF00950675088100050819012928
:1005B00005950575019102950175039101C0090228
:1005C0005B00030100A0FA0904000001030101001F
:1005D0000921110100012240000705810308000ADA
:1005E0000904010002030000000921110100012299
:1005F00022000705820320000107050303200001F4
:100600000904020001030000000921110100012278
:100610006D000705840320000A120110010000008C
:1006200008534601000100010200010C0343006F62
:100630000072006E0065000000100366006F006F1E
:10064000007300740061006E0000000403090400E0
:1006500000000000003E5B4F5B3E003E6B4F6B3E78
:10066000001C3E7C3E1C00183C7E3C18001C577D44
:10067000571C001C5E7F5E1C0000183C180000FF29
:10068000E7C3E7FF00001824180000FFE7DBE7FFDF
:100690000030483A060E00262979292600407F05B9
:1006A000050700407F05253F005A3CE73C5A007F84
:1006B0003E1C1C0800081C1C3E7F0014227F2214D4
:1006C000005F5F005F5F0006097F017F00006689B1
:1006D000956A0060606060600094A2FFA2940008C8
:1006E000047E04080010207E20100008082A1C0840
:1006F00000081C2A0808001E10101010000C1E0C08
:100700001E0C0030383E383000060E3E0E0600004B
:10071000000000000000005F00000000070007006C
:1007200000147F147F1400242A7F2A120023130848
:10073000646200364956205000000807030000009C
:100740001C224100000041221C00002A1C7F1C2AA0
:100750000008083E08080000807030000008080803
:100760000808000000606000002010080402003E3D
:100770005149453E0000427F4000007249494946C8
:10078000002141494D33001814127F1000274545C0
:100790004539003C4A4949310041211109070036D9
:1007A0004949493600464949291E00000014000005
:1007B000000040340000000008142241001414140A
:1007C0001414000041221408000201590906003ED9
:1007D000415D594E007C1211127C007F4949493617
:1007E000003E41414122007F4141413E007F494955
:1007F0004941007F09090901003E41415173007FD1
:100800000808087F0000417F4100002040413F016F
:10081000007F08142241007F40404040007F021CBE
:10082000027F007F0408107F003E4141413E007F6F
:1008300009090906003E4151215E007F0919294638
:100840000026494949320003017F0103003F40402F
:10085000403F001F2040201F003F4038403F0063C2
:1008600014081463000304780403006159494D43DC
:1008700000007F4141410002040810200000414176
:10088000417F00040201020400404040404000005B
:1008900003070800002054547840007F284444385F
:1008A00000384444442800384444287F00385454D5
:1008B00054180000087E0902001824241C78007FC8
:1008C000080404780000447D4000002040403D00C2
:1008D000007F102844000000417F4000007C047825
:1008E0000478007C08040478003844444438007CD0
:1008F0001824241800182424187C007C08040408F8
:100900000048545454240004043F4424003C404014
:10091000207C001C2040201C003C4030403C004417
:1009200028102844004C9090907C004464544C441F
:10093000000008364100000000770000000041364A
:100940000800000201020402003C2623263C0000AD
:10095000000000000000000000000000000000C0D7
:10096000E0F0F8F81800C0F0FCFEFFFFFFFFFFFF0B
:10097000FF7E00000000000000000080C0E0E0E01A
:10098000E0E0E0E0E0C0800000000080C0E0E0E0E7
:10099000E0E0E0E0E0C080000000E0E0C0C0E0E0B7
:1009A000E0E00000E0E0C0C0E0E0E0E0E0C08000A7
:1009B00000000080C0E0E0E0E0E0E0E0E0C08000B7
:1009C00000000000000000000000000000E0F0F067
:1009D000F0E0ECEEF7F37020007C7C7C7E007E7E05
:1009E0007E7F7F7F000080C0E07E5B4F5BFEC000AB
:1009F00000C000DCD7DEDEDED7DC00C00000000077
:100A000000000000000000000000000000000000E6
:100A10000000000000000000F8FCFEFFE000FFFF07
:100A2000FFFFFFFF80FFFFFFFFFFFFFFFFFF1F072D
:100A300001000000000000000000FFFFFF81000037
:100A40000000000081C3C3C30000FFFFFF8100005E
:100A50000000000081FFFFFF0000FFFFFF0100001A
:100A600000000000FFFFFF010000000001FFFFFF8A
:100A70000000FFFFFF9D1C1C1C1C1C1C9DDFDFDFFA
:100A8000000000000000000000000000000F1F3FF9
:100A90007F7F7F7F7F3F1E0C001F1F1F3F003F3F58
:100AA0003F7F7F7F00307B7F7830202030787F3B16
:100AB0000003000F7F0F0F0F7F0F000300000000E7
:100AC0000000000000000000000000000000000026
:100AD0000000000000000000030F1F3F3F3F3F1FCA
:100AE0001F3F3F7F7F7F3F3F1F3F7F7F7F7F7C7820
:100AF00078381C0F00000000000000010307070702
:100B000007070707070301000000000103070707A5
:100B10000707070707030100000007070700000099
:100B2000000000000707070000000000000707079B
:100B30000000000103070707070707070703010075
:100B400000000000000000000000000000000000A5
:100B50000000000000000000000000000000000095
:100B60000000000000000000000000000000000085
:100B70000000000000000000000000000000000075
:100B80000000000000000000000000000000000065
:100B900011241FBECFEFDAE0DEBFCDBF04B603FEE7
:100BA00027C08091470590914805A0914905B091D3
:100BB0004A058730904BA740B04BD1F410924705BF
:100BC000109248051092490510924A0514BE84B748
:100BD000877F84BF0FB6F894A895809160008861E4
:100BE00080936000109260000FBEE0E0F8E309958A
:100BF00011E0A0E0B1E0E6E0FCE502C005900D9256
:100C0000AE3CB107D9F725E0AEECB1E001C01D92D2
:100C1000A734B207E1F70E9411060C94012E0C9440
:100C20000000CF93DF93CDB7DEB7AC970FB6F89443
:100C3000DEBF0FBECDBF84B7877F84BF0FB6F894E9
:100C4000A895809160008861809360001092600098
:100C50000FBE90E080E80FB6F89480936100909307
:100C600061000FBE85B7806885BF85B7806885BF86
:100C70008BE29AE19093CF018093CE010E941F24D2
:100C80000E943E248091E20084608093E200789488
:100C9000809119038823A1F01091E9001F709091B1
:100CA000EC00892F817090FD80E8182B1092E900EC
:100CB0008091E80083FD0E9409211F701093E900D4
:100CC00082E084BD93E095BD9AEF97BD80936E005E
:100CD0001092D0011092D1011092D2011092D30142
:100CE0000E940E1091E089278093050180910501F3
:100CF000882321F01092000186E003C086E08093F3
:100D00000001809301010E940E1081110E945D2755
:100D10008091050180910501882311F090E001C0C8
:100D200094E09093DF0184E0891B8093DE0184E9E5
:100D30000E94311086E60E94311087E90E9431102E
:100D400086EC0E94311000E311E0A6E3EA2EA1E058
:100D5000FA2ED8018D918D010E943110E016F10616
:100D6000C1F7E6EDF1E08EED91E0A8E3B2E011927B
:100D70001D928E179F07D9F780E090E00E94952A78
:100D80008A3E9E4F11F00E94D51B82E090E00E94A7
:100D9000872A80932A020E94C41B9093D5018093D6
:100DA000D4010E943712EFE3FCE93197F1F700C05C
:100DB00000000E9437120E940E10811102C0E0E074
:100DC00001C0E4E0F0E0E85CFD4F808181FF17C0E6
:100DD0006FEF83E290E00E949B2A6FEF84E290E045
:100DE0000E949B2A6FEF85E290E00E949B2A6FEFA2
:100DF0007FEF80E090E00E94B92A0E94A81A83E069
:100E000090E00E94872A682F70E080E090E00E94C6
:100E1000F01D0E940E10811102C00E94632783E220
:100E200090E00E94872A813281F484E290E00E945F
:100E3000872A873051F485E290E00E94872A91E06A
:100E4000813109F090E0892F01C080E080FF8AC4E1
:100E50000E940E10811102C082E001C080E08093E8
:100E60001F0280E8809327030E94D4276DE070E082
:100E70008BE491E00E94E020892B09F043C080912F
:100E80001F0263E070E081FD3AC088E491E00E94B7
:100E9000E020892BB9F56DE070E088E391E00E94D5
:100EA000E020892B79F50E94EE1ADC01CB01805AF3
:100EB0009541AF4FBF4F8093210290932202A093A0
:100EC0002302B0932402EAE2F3E080E092E0DF0143
:100ED0009C011D9221503040E1F7F0933105E093E1
:100EE00030058FEF9FEF909329038093280381E0D3
:100EF00080932802809325021092200203C085E48B
:100F000091E0C5CF8091E301811139C080E090E08C
:100F10000E94952A8A3E9E4F21F00E94D51B0E9476
:100F2000F70F88E090E00E948F2A6093330270935D
:100F3000340280933502909336028091E2018360FF
:100F40008093E2016E7F71F40E94F70F88E090E0D9
:100F50000E948F2A6093330270933402809335028B
:100F6000909336020E94310E8091330280FF04C0BC
:100F700060E086950E94A00F81E08093E3018DE000
:100F800091E09093E5018093E401CE0101967C010C
:100F90001E019BE0290E311C80911903853009F058
:100FA00044C000E112E180911903853009F039C095
:100FB00080911903843021F11092E601A8E1B0E09C
:100FC000E0E40FB6F894A895A09360000FBEE093FC
:100FD000600083B7817F846083BF83B7816083BFF4
:100FE0007894889583B78E7F83BF0FB6F894A895C1
:100FF00080916000886180936000109260000FBE55
:1010000080911803882309F4CECF0E943712E8E3B9
:10101000F2E08191811187C322E0E034F207C9F741
:10102000C2CF0E941F200E94D80C0E943712B82EF7
:1010300081110E94EE1AEBE2F2E0A8E3B2E000E0D8
:1010400010E0902EAD9081918A2549F1C12CDD24CC
:10105000D394982F9D21F1F00E940E10882399F0CF
:10106000C9A29AA2AD2081E009F480E08BA30E947E
:10107000321B8160782F9DA38CA349A15AA16BA13B
:101080008DA10E940E0CF801E55DFD4F8081D826F0
:10109000D0821AC0C394DD0C36E0C312DACF0F5FE2
:1010A0001F4F0830110569F68FEF8EA38FA318A686
:1010B0000E94321B8160782F9AA789A74EA15FA159
:1010C00068A58AA50E940E0C80912802882309F445
:1010D00065C180912602909127020E94DF1AC29773
:1010E00008F452C00E94321B90932702809326027C
:1010F0008AE293E090933105809330050E940E10B0
:101100008823C9F183E791E00E94B42080912303F2
:1011100090912403A0912503B09126038F3091056F
:10112000A8F4FC01EA5AFF4F0C94EF2A8BE691E0F9
:1011300008C085E691E005C08FE591E002C088E532
:1011400091E00E94B42081E00E940A0DE7EEF1E0F8
:1011500001900020E9F78F0101501109F7EECF2E21
:10116000F1E0DF2EC016D10650F4D6018D916D014D
:101170000E943420F7CF8BE791E00E94B420809149
:101180002802882309F4E3C0209128033091290321
:101190002115310509F4DBC0809120028111D7C0EF
:1011A000482E512CCC24C394D12C082E02C0CC0C38
:1011B000DD1C0A94E2F7A9014C215D21452B11F4B5
:1011C0008F5FEECF90911F02920175E0220F331FC7
:1011D0007A95E1F790FD12C08295880F8076809312
:1011E0000801220F232F221F330B319520930B016F
:1011F000815E8093090110920C0112C055E0369572
:1012000027955A95E1F7220F220F220F209308010C
:1012100010920B01295F2093090183E080930C0158
:1012200024E630E047E050E066E071E088E70E94A5
:101230006128892B09F08BC080911F0280FD23C09B
:10124000C20145E0880F991F4A95E1F7AC01465D60
:101250005C4F04E610E020E230E060E488E70E94A2
:101260008828892B09F073C00E94E40CC094D094A4
:101270008091280390912903C822D922D092290372
:10128000C092280364C080E2EFEFF1E0DF011D921D
:101290008A95E9F735E0440C551C3A95E1F7EAE305
:1012A000F1E0FCA7EBA766E371E0ABA5BCA58D91CF
:1012B000BCA7ABA7FB019191BF01A201490F511D32
:1012C000465D5C4F90E081509E4FFC0127E0922EDE
:1012D0009F01281B390B7724739401C0770C2A9542
:1012E000EAF78A01812CD801AD908D01A720292D24
:1012F00028192770622E022E000C330BBA2D01C064
:10130000BB0F6A94EAF76B2E31952195310927704E
:10131000332701C0A6942A95EAF76A28A0806A2894
:101320006082839428E08212DECF9A9431963FEF58
:101330009312CECF8BA59CA58E53914009F0B5CFCB
:1013400004E610E020E230E04FEF51E086CF8091DC
:101350002502882319F10E94EE1A009121021091B2
:1013600022022091230230912402DC01CB01801B58
:10137000910BA20BB30B8F3F9F4FAF4FBF4770F442
:1013800080912802882351F062E070E08BEB91E0BD
:101390000E94E020892B11F410922502B1100E94C6
:1013A000E40C0E94D80C90912902891721F00E9428
:1013B000D80C8093290280911903843009F0ECCD78
:1013C00083E08093E9008091E80082FFE5CD809181
:1013D000E80085FF23C00E94742581111DC080E2B2
:1013E000C82ED12C8E010F5F1F4F09C08091F100D4
:1013F000D8018D938D01B1E0CB1AD10869F08091AD
:10140000E80085FDF3CF8091E8008B778093E800BA
:101410000E947425882399F391E001C090E08091A7
:10142000E8008B778093E800992309F4B5CDE98132
:101430008E2F90E0FC013197E331F10508F04BC1AC
:10144000EB59FF4F0C94EF2A1A8289E0A5C08A81DC
:10145000823009F47EC1833051F0813009F03BC104
:101460000E94EE1A9B838C837D836E8336C1FE01BE
:101470003396A8E3B2E08D9181932E163F06D9F7FB
:101480002CC18A81823009F026C16B817C818D81DB
:101490009E810E94F52A86E290E024C04C816B81F7
:1014A0008A810E947E0D9D835BC10D811E81102764
:1014B000012710278C81CB809A81ECE0CE9E6001C1
:1014C0001124F0E69F9FC00CD11C1124C80ED11C22
:1014D000C80ED11C612FC60187960E949B2A602FDF
:1014E000C60188960E949B2AF8C00E944A0DF5C04A
:1014F0008A818138B1F050F4803809F0EEC020E0E4
:101500004B81609135028091340223C08238E9F02A
:10151000833809F0E2C020E0409136026C818B8173
:1015200018C060E08B810E94A00F8B81811103C0E5
:101530000E941C0ED2C080913302816080933302DE
:1015400060E086950E94A00FC8C08B81809337020F
:10155000C4C00E944E0EC1C08A81813899F030F417
:10156000803809F0BAC08091360216C0823891F0F6
:10157000833809F0B2C0809134028B8380913502A8
:101580008C83ABC08091330280FF02C0869504C07B
:1015900080E002C0809137028B839FC0609133024C
:1015A0007091340280913502909136020E943C0E77
:1015B00094C080E14DC082E08A8389E5EDCF0A8145
:1015C0001B81102701271027AC80B12C6701C801AF
:1015D00089559E4F96012E193F092A153B0508F0A3
:1015E0007CC0093522E0120730F40E94872AD60118
:1015F00014968C9302C0F60114820F5F1F4FFFEF09
:10160000CF1ADF0AE4CF0A811B8110270127102798
:10161000AC80B12C6701C80189559E4F96012E19E7
:101620003F092A153B0508F058C0093522E012078A
:1016300028F4D60114966C910E949B2A0F5F1F4FCD
:10164000BFEFCB1ADB0AE7CF0E943A0D46C084E019
:101650008A8343C00A811B81102701271027AC8091
:10166000B12C6701C801879696012E193F092A15EA
:101670003B0598F50038E1E01E0730F40E94872A08
:10168000D60114968C9302C0F60114820F5F1F4F8F
:10169000FFEFCF1ADF0AE6CF0A811B81102701274F
:1016A0001027AC80B12C6701C801879696012E19CE
:1016B0003F092A153B0588F4003821E0120728F479
:1016C000D60114966C910E949B2A0F5F1F4FBFEFAB
:1016D000CB1ADB0AE9CF8FEF89838091190384301D
:1016E00009F05ACC1091E9001F709091EC00892FFD
:1016F000817090FD80E8182B82E08093E900809152
:10170000E80080FF0CC040E050E060E270E0C701FC
:101710000E94A7258091E8008E778093E8001F70D3
:101720001093E90039CC09BD19BD09B400FEFDCF05
:101730008091D8008F7D8093D8008091E0008260F6
:101740008093E0008091E00081FDFCCF0E941F208B
:101750002ACC86E290E00E94872A1B821C821D828E
:101760008E83BBCF60E086E290E00E949B2A0E94BD
:101770004A0D0E943A0D61E283E290E00E949B2AAA
:1017800067E084E290E00E949B2A61E185E290E0BC
:101790000E949B2A5DCB9091D40192FF0DC0282F0F
:1017A0002871283019F4877F846006C0282F24719F
:1017B000243011F48B7F886093FF0DC0282F28718F
:1017C000283119F4877E846106C0282F24712431C2
:1017D00011F48B7E88612091D50120FF0DC0382F38
:1017E0003871383019F4877F816006C0382F317125
:1017F000313011F48E7F886021FF0DC0282F2871B1
:10180000283119F4877E816106C0282F217121318A
:1018100011F48E7E886194FD877E08951F93CF9387
:10182000DF93CDB7DEB767970FB6F894DEBF0FBE74
:10183000CDBF342F4B8B252F5C8B6D8B7E8B8F8B8D
:101840004E895F8961111092E90286E0FE013D96A2
:10185000DF01982F1D929A95E9F73D872E876F87B4
:10186000598B488BDE01179601900D928A95E1F70E
:10187000CE0107960E94701E81113EC086E0FE01D7
:101880003796DE01119601900D928A95E1F7FF815E
:10189000E8856A857B856115710531F0EF3F31F48C
:1018A00081E0FF3F19F403C081E001C080E080FDCA
:1018B00023C02091970230E0C901019687709927D3
:1018C0004091C80250E08417950779F1F983EA83C3
:1018D0007D836C8396E0929FD001939FB00D11247D
:1018E000A856BD4FFE01319601900D929A95E1F7F1
:1018F000809397020E94FA1D16E08091C802909191
:1019000097028917F9F0189FC001112488569D4F3E
:101910000E94701E8823B1F08091C80290E0019669
:10192000877099278093C802E8CF0E941F201092E9
:1019300097021092C802E1E9F2E086E0DF011D9211
:101940008A95E9F767960FB6F894DEBF0FBECDBF54
:10195000DF91CF911F91089520916D0230916E0219
:101960002817390771F090936E0280936D02E09111
:10197000E401F091E501309721F00084F185E02D3C
:101980000994089520916B0230916C022817390751
:1019900071F090936C0280936B02E091E401F091FE
:1019A000E501309721F00680F781E02D0994089534
:1019B000E091E401F091E501309721F00190F08190
:1019C000E02D099480E00895809128028823F9F0A1
:1019D0000E94EE1ADC01CB01805A9541AF4FBF4FF8
:1019E0008093210290932202A0932302B0932402B9
:1019F0008091250281110BC062E070E08DE394E0DC
:101A00000E94E020892B19F481E0809325028091C7
:101A100025020895CF93E82F2091300530913105AC
:101A20002A52334040912703642F70E0C9010E947D
:101A3000DB2A481B842FEE2351F066E00E94CF2A58
:101A4000C82FC150A8F080E20E943420FACFA9012B
:101A5000480F511D4115524018F080E020E030E061
:101A6000280F311D265D3C4F309331052093300502
:101A7000CF910895CF93DF93C7EAD1E060E0CE0124
:101A80000E949B2A2196C11584E0D807B9F7DF91FF
:101A9000CF910895CF92DF92EF92FF920F931F9311
:101AA000CF93DF93C0E0D0E08E01005A1F4F6E014C
:101AB0008CE0C80ED11CFE01E354FD4FE590F4907C
:101AC0006F2DCE0187960E949B2A6E2DCE0188969F
:101AD0000E949B2A2296CC15DD0569F70C171D077D
:101AE00031F7E80100381140F9F6DF91CF911F91ED
:101AF0000F91FF90EF90DF90CF9008950F931F9379
:101B0000CF93DF93C42FD0E0CC0FDD1F2CE0629F7A
:101B1000C00DD11D112430E6839FC00DD11D1124AD
:101B2000CE0187960E94872A082F10E0102F0027E9
:101B3000CE0188960E94872A9801282BC901DF913F
:101B4000CF911F910F910895462F843038F478304B
:101B500028F4663018F4672F0C947E0D80E090E036
:101B60000895882311F0FA0101C0FB01099425E0D2
:101B7000E3E3F2E0DC0101900D922A95E1F7209178
:101B8000E0013091E1014091E201FC0125833683BF
:101B9000478308951092E20108958091E20108952B
:101BA000309101018091330280FF16C0E091000165
:101BB00063E0E69FF0011124EB5BFD4F539A8BB17C
:101BC000877F9BB198602FB7F894AF0163E0369F91
:101BD000400D511D112414C0809102019091030108
:101BE000891720F7E82FF0E0AF01440F551FE40FED
:101BF000F51FEB5BFD4F1182108212828F5FF0CFD9
:101C0000E417F50789F0319168E09BB9000000C046
:101C100037FF8BB9330F000000C000C000C08BB984
:101C200000C06A9591F7ECCF2FBF8FE594E0019744
:101C3000F1F700C000000895E3E3F2E080818E7FB9
:101C40008083E0EEF1E08281816082832FEF80E784
:101C500092E0215080409040E1F700C000000C94D9
:101C6000D00D80913302982F9695913021F081709C
:101C70008260809333020895CF92DF92EF92FF92B9
:101C80006B017C010E94310EB701A60188E090E053
:101C9000FF90EF90DF90CF900C94AD2A9F92AF927F
:101CA000BF92CF92DF92EF92FF920F931F93CF9349
:101CB000DF939091330290FFD3C0922E142FC62F42
:101CC000D82FE92FE695F0E0E25CFE4F808180930B
:101CD000E0019E7F923009F095C0E42FF0E06111A1
:101CE00006C0E354FE4FE491FE2F2E2F72C0E62E65
:101CF000F12CE354FE4FF4910F2FCF2ED12C26E080
:101D0000D29FC00111242FEF30E0B9010E94DB2ADD
:101D10004BEA4603C001479F900D11248D0F911D82
:101D20008D0F911DB82EBB0CB80EA9014E195F097D
:101D30004C9DC0014D9D900D5C9D900D1124E92F8F
:101D4000CB9DA0011124452F5527D901A41BB50B0C
:101D5000AC9DA001AD9D500DBC9D500D1124D9012D
:101D6000AB19B1095D01AE9CD001AF9CB00DBE9C1A
:101D7000B00D1124AB2FBB272A1B3B0B2C9DD00190
:101D80002D9DB00D3C9DB00D11242B2F623071059F
:101D900091F048F461157105E1F061307105B9F415
:101DA0002F2FF52F16C06430710569F040F06630B2
:101DB000710579F00CC02F2FF92FEB2F0AC0F92FE6
:101DC000E02F252F06C0292FEF2FFB2F02C0292F30
:101DD000E52F8091020190910301891788F4A82FC3
:101DE000B0E0AD01440F551FA40FB51FAB5BBD4F55
:101DF0001196FC9311972C931296EC938F5FEDCF75
:101E00000E94D00D80913402D81308C08091350211
:101E1000C81304C080913602181729F08091E2019E
:101E200082608093E201D0933402C0933502109314
:101E300036029920A9F060913302709134028091AA
:101E4000350290913602DF91CF911F910F91FF9053
:101E5000EF90DF90CF90BF90AF909F900C943C0E8E
:101E6000DF91CF911F910F91FF90EF90DF90CF9076
:101E7000BF90AF909F900895E3E3F2E0438121E1AA
:101E8000421B08F440E021E0628181810C944E0EF7
:101E9000E3E3F2E0438121E1420F08F44FEF21E058
:101EA000628181810C944E0EE3E3F2E0628121E1D4
:101EB000621B08F460E021E0438181810C944E0EA6
:101EC000E3E3F2E0628121E1620F08F46FEF21E0C9
:101ED000438181810C944E0EE3E3F2E0818121E0A5
:101EE0004381628188500C944E0EE3E3F2E08181DD
:101EF00021E043816281885F0C944E0E809137020D
:101F0000882319F0815080933702609133027091D9
:101F1000340280913502909136020C943C0E8091EF
:101F20003702833018F48F5F809337026091330259
:101F30007091340280913502909136020C943C0EDF
:101F40008091330280FF1EC08170826080933302D3
:101F50008091E20181608093E201662351F06091FB
:101F600033027091340280913502909136020E94C2
:101F70003C0E20E04091360260913502809134029F
:101F80000C944E0E08951F93CF93DF93EC01162F00
:101F90008F8180FF0FC0888180FF0AC0809133024B
:101FA000816080933302888186950E94A00F02C0D1
:101FB0000E941C0E8F8181FF09C0212F4B816A81F5
:101FC0008981DF91CF911F910C944E0EDF91CF91BB
:101FD0001F910895809133028695815009F481E024
:101FE00061E00C94A00F61E081E00C94A00FE3E3AA
:101FF000F2E083E0808311828FEF828383831482F7
:10200000A0EEB1E012968C911297836012968C9399
:1020100060817181828193810C943C0E8091440295
:10202000811118C08091D80080618093D8008AE126
:102030008A95F1F700C08091D90080FD02C082E04E
:1020400001C081E080934402823021F40E941F2469
:102050001092190381E090914402913009F080E0E0
:102060000895F894E82FE295EF70F0E031A1282F61
:102070002F7081E090E001C0880F2A95EAF7982F31
:102080009095932391A392A1892B82A3789408958C
:10209000CF93DF930E94A40DEC018238910559F192
:1020A000A0F48133910509F473C040F4893291059D
:1020B00009F467C08A9709F472C084C0853391051A
:1020C00009F458C0C997B9F07DC0833E910571F1FC
:1020D00038F4803E9105B1F0823E910511F172C055
:1020E000863E9105B9F1873E9105C9F1843E91057F
:1020F00009F068C024C08091D40180FD5DC081FDDD
:102100005BC060C08091D40180FD50C08091D5013A
:1021100080FF36C18091D40184FD30C1C3EED0E090
:102120002FC18091D40182FF2BC1F4CF8091D401C3
:1021300082FD3FC08091D50180FD3EC0EBCF8091F4
:10214000D50181FF1DC18091D40184FD17C1C7EE67
:10215000D0E016C18091D40183FF12C1F4CF8091E9
:10216000D40183FD2CC08091D50181FFECCFC4EE5A
:10217000D0E006C18091D40185FF02C1C9E2D0E060
:10218000FFC08091D40185FFFBC0C5E3D0E0F8C05B
:102190008091D40186FFF4C0CAE2D0E0F1C0809102
:1021A000D40186FFEDC0C1E3D0E0EAC0C9E3D0E0CE
:1021B000E7C0C2EED0E0E4C0C0EED0E0E1C0C6EEC1
:1021C000D0E0DEC0C11582E5D80708F066C0C115B1
:1021D00091E5D90728F0DC2FCC27C16FD06AD0C099
:1021E000C83ED10560F5C03ED10508F0C9C0C83A67
:1021F000D105B0F4C53AD10540F0C55AD0E0C45677
:10220000DE4FC881D0E0D064BBC0C130D10509F435
:10221000B7C008F4B3C0C430D10508F4AFC0B0C033
:10222000CF3BD10508F0AAC0C85AD0E0CC0FDD1FC3
:10223000C156DE4F0990D881C02DD464A1C0C1150C
:1022400020E5D207E0F0CE0174E0969587957A9567
:10225000E1F783709C2F937021E030E002C0220FE1
:10226000331F9A95E2F73C68382BCF70C695C69518
:1022700080E2C89FE0011124C22BD32B81C0C1157D
:1022800080E4D80718F0DF70D06A7AC0CE019A9542
:1022900081159F4108F474C071C0C11586E5D80747
:1022A000F0F5C11595E5D90750F08C2F0E94CB0BA6
:1022B0008F71C82FD0E0DC2FCC27D06261C0C11550
:1022C00024E5D20728F0DC2FCC27C46FD06A58C091
:1022D0009E01237033278C2F86958695C115D34593
:1022E00078F4C1E0D0E002C0CC0FDD1F2A95E2F700
:1022F00020E2829FC0011124C82BD92BDC6840C08A
:10230000C1E0D0E002C0CC0FDD1F2A95E2F720E249
:10231000829FC0011124C82BD92BDA6831C0C115A6
:102320002AE5D207E8F4C11589E5D80780F08C2F9B
:102330008F700E94CB0B94E0D695C7959A95E1F7E4
:10234000CF70D0E0DC2FCC27D069C82B19C0C115C5
:1023500098E5D90798F0DC2FCC27C06FD06A10C061
:10236000CE0190568115904248F48D2F8F710E94B6
:10237000CB0BDD27D0628F71D82B02C0C0E0D0E03C
:10238000CE01DF91CF9108950F931F93CF93DF93E9
:10239000C42FD22FFC0182818823C9F040936F02A1
:1023A0000E94321B90936A028093690280E28C0F34
:1023B000883008F057C0C77081E001C0880FCA9507
:1023C000EAF7DF91CF911F910F910C94DE25809158
:1023D0006F02481330C08091690290916A020E9496
:1023E000DF1A883C910538F510E21D0FCD17B9F0C2
:1023F00080E28C0F883040F4C77081E001C0880F04
:10240000CA95EAF70E94D325183028F581E09D2F60
:10241000977001C0880F9A95EAF70E94DE25802FF9
:102420000E948D261830F0F4D77081E001C0880F2B
:10243000DA95EAF70AC080E28C0F883098F4C7700A
:1024400081E001C0880FCA95EAF7DF91CF911F9113
:102450000F910C94D325802FDF91CF911F910F9175
:102460000C948D26DF91CF911F910F9108958F923B
:102470009F92AF92BF92CF92DF92EF92FF920F9313
:102480001F93CF93DF9300D000D0CDB7DEB788E2A3
:10249000C82E81E0D82E96EDE92E91E0F92E470165
:1024A00010E0AA24A394B12CB601D6018C91F89423
:1024B000E82FE295EF70F0E021A18F70A50102C036
:1024C000440F551F8A95E2F7CA01922F982B91A3CA
:1024D00092A18095892382A3789400C0E0E3F1E083
:1024E00020E030E000E04191842F82958F7090E0F1
:1024F000DC0190968C9190E04F7002C09595879585
:102500004A95E2F780FD07C08A2D022E01C0880F90
:102510000A94EAF701C080E0082B2F5F3F4F263076
:10252000310509F7BFEFCB1ADB0AFB0180810E945E
:102530003110F0EAFA95F1F7D4018C91081719F0EF
:102540000C9381E001C080E0182BBFEF8B1A9B0A2F
:10255000ECE2CE16E1E0DE0609F0A6CF0091DF0145
:10256000112349F081E0809342020E94321B909334
:10257000410280934002809142028823B9F0809109
:102580004002909141020E94DF1A069778F0E02FF6
:10259000F0E0E85CFD4FD7018D917D018193BAEDAC
:1025A000EB16B1E0FB06B9F7109242020E940E1042
:1025B0006091DF018823C9F119821A821B821C8273
:1025C000862F90E0BE016F5F7F4F885C9D4F0E9419
:1025D0008627811112C0809143028F5F809343024E
:1025E000863068F1E091DE01F0E0E85CFD4F10829A
:1025F00011821282138281E023C010924302E09183
:10260000DE01F0E0E85CFD4FDE0111969E012B5FDC
:102610003F4F80E09D914081491711F0908381E008
:102620003196A217B307B1F70BC070E0685C7D4F1D
:102630008091DE0190E0885C9D4F0E94B42780E08D
:10264000112311F081E090E00F900F900F900F9008
:10265000DF91CF911F910F91FF90EF90DF90CF907E
:10266000BF90AF909F908F9008953F924F925F924E
:102670006F927F928F929F92AF92BF92CF92DF9292
:10268000EF92FF920F931F93CF93DF93CDB7DEB7F7
:1026900029970FB6F894DEBF0FBECDBFFC01808135
:1026A000918123813481232B31F09F3F31F491E0DC
:1026B0008F3F19F403C091E001C090E090FDAFC6D8
:1026C0007F0185E0DE01119601900D928A95E1F778
:1026D000F701228189819A81222349F00E94B41C4A
:1026E000182F682F89819A810E94571D03C00E946C
:1026F0002A1D182F69817A81812F0E94A40D8C01D7
:10270000F7018281882309F4F1C0C80182519F45F5
:10271000409708F0F0C58FEF93E00E94872A81115F
:10272000EEC0025137EA832E99249394002379F066
:102730008114F4E09F0609F4E2C0C4010E94872AD4
:10274000811101C001501FEF811A910AEFCF1E8243
:102750001F8218861986442443942AE0322E84016D
:102760000F5F1F4FC4010E94872A8E831F82882318
:1027700009F4C5C09FEF980F933060F48F834E82A9
:1027800022E0820E911CC8010E94872A888781114D
:1027900002C0B5C048018E010A5F1F4FF8012081B9
:1027A0002223E9F2213009F04CC08181813049F4C3
:1027B0006801F2E0CF0ED11CF80182810E948D26C3
:1027C0000AC0823051F46801F2E0CF0ED11CF8014A
:1027D00082810E941A26860186C0833049F46801EE
:1027E000F2E0CF0ED11CF80182810E94E825F3CFE0
:1027F000843019F00F5F1F4F76C0F80122810E5F01
:102800001F4F80E090E030E0205331092A3031053D
:1028100068F4389EA001399E500D1124C901840F1F
:10282000951F0F5F1F4FF8012081EDCF009709F42E
:102830005AC0EFE9FFE03197F1F700C000000197BF
:10284000F5CFE22FF0E0E159FB4F5490822F8695AF
:102850008695869590E0FC01E15AFB4F64902770C5
:10286000712C022E02C0759467940A94E2F7F1E08D
:102870006F227724FC01E15BFB4FA490B12C022E68
:1028800002C0B594A7940A94E2F731E0A322BB24D6
:10289000FC01E15CFB4FC490D12C02C0D594C794DD
:1028A0002A95E2F781E0C822DD246114710419F051
:1028B00081EE0E941A26A114B10419F086EE0E943E
:1028C0001A26852D0E948D26AB2819F086EE0E94CF
:1028D000E825672819F081EE0E94E825CD2819F037
:1028E0008CE20E948D260F5F1F4F58CF0031FFE50D
:1028F0001F0749F581E00E948D1D0E94C220809132
:10290000E702877009F48BC5F7018281882309F4F7
:1029100086C582E029960FB6F894DEBF0FBECDBF04
:10292000DF91CF911F910F91FF90EF90DF90CF90AB
:10293000BF90AF909F908F907F906F905F904F90DF
:102940003F900C94B21D01312FE51207A1F582E0F2
:10295000D2CFC80190568115904230F0C8019054F2
:102960008115904108F0D6C4C80199278C33910590
:1029700008F0D2C4FC01EF5AFE4F20811F922F9322
:102980009F938F93F70180811F928F9381811F9274
:102990008F9380E491E09F938F931F9288E18F93B0
:1029A00087EE91E09F938F930E94092B0FB6F894C6
:1029B000DEBF0FBECDBF033F3CE5130759F190F4D6
:1029C000083D9CE51907E9F0093DECE51E07A1F17A
:1029D000073DFCE51F07B1F506E221EE41EE67ED8C
:1029E0007CE514C0053F2CE5120701F1C8F0063F55
:1029F0008CE5180739F507E225EE46EE66EF7CE533
:102A000005C007E225EE45EE68ED7CE5C7010E94B2
:102A1000C41175CF06E221EE40EE63EF7CE5F6CF00
:102A200007E225EE44EE64EF7CE5F0CF06E221EE0E
:102A300042EE65EF7CE5EACF08E221E045EE69ED84
:102A40007CE5E4CFF7018281882309F43EC110922E
:102A50006F020230FCE51F0708F421C106312CE5A6
:102A6000120730F0C8018A5F9C45099708F017C12A
:102A70000E94C41B9093D5018093D40100313CE5A2
:102A8000130709F4C3C008F041C008309CE51907DA
:102A900009F49AC0F0F40430FCE51F0709F487C07C
:102AA00068F402303CE5130709F477C003301C4595
:102AB00009F0E5C08091D401826076C006309CE5C3
:102AC000190709F46EC008F07BC08091D4018860BA
:102AD0006BC00C30FCE51F0709F485C068F40A30B0
:102AE0003CE5130709F474C008F079C00E941F2068
:102AF0008091D401806858C00E309CE5190709F414
:102B000076C008F07FC08091D4018BC00B3FFCE5FC
:102B10001F0709F44FC018F503313CE5130709F40A
:102B20007DC078F401319CE5190709F473C00231C6
:102B30001C4509F0A4C00E941F208091D4018F770A
:102B400033C00531FCE51F0709F472C008F486C0E4
:102B50000A3F1C4509F093C08091D5013EC00F3F4C
:102B60008CE5180709F45FC058F40D3FECE51E072B
:102B700009F444C008F43FC08091D50182602DC0A3
:102B800001302DE5120709F475C008F45DC002306C
:102B90001D4509F074C060E06EC08091D401816071
:102BA00003C08091D40180618093D40168C080917A
:102BB000D40111C08091D50182608093D5015FC09E
:102BC0008091D4018062F0CF8091D4018064ECCFF9
:102BD0008091D40188608460E7CF8160EECF8091DE
:102BE000D4018E7FE1CF8091D4018D7FDDCF8091A4
:102BF000D401877FD9CF8091D50118C08091D501AC
:102C00008D7FDBCF8091D4018F7ECECF8091D40198
:102C10008F7DCACF8091D4018F7BC6CF8091D401A4
:102C2000877F8B7FC1CF8091D5018D7F8E7FC5CF70
:102C30008091D40182FB222720F991E0922790FB1A
:102C400082F990FB83F9B0CF8091D501982F9095B0
:102C500091708E7F892B90FB81F9AFCF0E941F204E
:102C60008091D40187FB222720F991E0922790FBE5
:102C700087F99ACF61E08EE090E00E949B2A6091F4
:102C8000D4011091D50184E090E00E949B2A612F2D
:102C900082E290E00E949B2A0E941F2030CE0631E3
:102CA000FCE51F0721F58091EA028A7A91E009F498
:102CB00090E090937002882311F065E301C069E20F
:102CC00081E792E00E948F1B0FC00631ECE51E07E2
:102CD00009F040C080917002882309F41FC365E3A6
:102CE00081E792E00E94671B0E94461C08CE0A35CD
:102CF000FDE51F0749F158F401153CE51307B1F054
:102D00000E3D1C4509F042C00E94D51BF8CD0B3585
:102D10009DE51907D9F00C351D45C1F58091D50108
:102D200082FB882780F991E0892711C00E941F202B
:102D3000FFEF04E31CE0F15000401040E1F700C059
:102D400000000E94A81ADBCD81E001C080E00E9453
:102D50009A1C1CC08091EA028272093C9CE519070A
:102D600009F447C308F0E8C2053CFCE51F0709F475
:102D700031C308F0D5C2033C3CE5130709F420C376
:102D800008F023C3023C1C4509F4F2C2F70182811A
:102D900000811181882349F0C8010E94B41CD82EFB
:102DA000682FC8010E94571D04C0C8010E942A1D37
:102DB000D82EB8018D2D0E9448108C01982EF70155
:102DC000B280A580A2949FE0A9228091E70287703B
:102DD00099F0BB2089F0812F807F803421F080E240
:102DE000800F883048F082E00E94B21D8091E70297
:102DF0008770DD24D3948111D12CC12EC2948FE031
:102E0000C8228C2D90E08C30910508F03FC2FC0167
:102E1000E858FF4F0C94EF2A812F807F1F70882382
:102E200011F01295107FBB20B9F0112309F419C2DB
:102E300080E2800F883010F0911006C08091EA0285
:102E4000182B1093EA0205C08091E902182B109309
:102E5000E9020E94461C05C2802F0E94E82511232A
:102E600009F414C2005E1095083010F0911006C0ED
:102E70008091EA0218231093EA0205C08091E902CA
:102E800018231093E9020E94461C00C2812F807F04
:102E90001F70803211F01295107F992021F0F1E01F
:102EA0009F1611F130C0BB20B1F0AA2081F001E0E3
:102EB000A0120DC08091D50182FDE8C18091EB0286
:102EC000182B181709F4E2C11093EB02DFC18091AF
:102ED000EB02812B10C0AA2021F021E0A21609F4F8
:102EE000D5C10E94401C27C0BB2041F035E03A15F7
:102EF00008F4CCC1812F0E94DE25C8C184E08A1568
:102F000008F4C4C118C0BB2049F0AA2099F3F70106
:102F1000858180FFA6C18F708583ECCFAA2059F0F0
:102F2000093309F0B0C1FFEF17EE23E0F150104074
:102F30002040E1F7A6C1812F0E94D325A7C1812F90
:102F400086958695837019F0813059F09FC1BB201A
:102F500019F0C801937002C080E090E00E94C20C9A
:102F60009BC1BB2019F0C801937002C080E090E0C3
:102F70000E94AC0C91C1812F837009F069C0B1101F
:102F800089C1902F929596959770990F990F802FE0
:102F90008F70882E912CA12CB12C092E04C0880C86
:102FA000991CAA1CBB1C0A94D2F704FF12C04FE064
:102FB00050E060E070E004C0440F551F661F771FAB
:102FC0009A95D2F7DB01CA0180959095A095B095AE
:102FD00003C080E090E0DC0116951695412F437008
:102FE000423019F1C8F40091EC021091ED022091E9
:102FF000EE023091EF02413059F088299929AA292F
:10300000BB29BC01CD0160237123822393230AC015
:10301000802A912AA22AB32ABC01CD0168297929E4
:103020008A299B290E94F01D35C188299929AA293E
:10303000BB290091EC021091ED022091EE0230913B
:10304000EF02BC01CD016027712782279327EACFC9
:10305000BB2019F0812F817001C08695882309F467
:1030600019C1902F929596959770990F990F802F6F
:103070008F70882E912CA12CB12C092E04C0880CA5
:10308000991CAA1CBB1C0A94D2F704FF12C04FE083
:1030900050E060E070E004C0440F551F661F771FCA
:1030A0009A95D2F7DB01CA0180959095A095B095CD
:1030B00003C080E090E0DC0116951695412F437027
:1030C0004230D9F068F50091230310912403209138
:1030D000250330912603413059F088299929AA29DE
:1030E000BB29BC01CD0160237123822393231EC021
:1030F000802A912AA22AB32A13C088299929AA29A9
:10310000BB290091230310912403209125033091C2
:103110002603BC01CD01602771278227932706C0B3
:10312000BC01CD01682979298A299B290E94831D28
:10313000B1C01F70BB2039F0812F0E94CF1D802F9E
:103140000E94DE25A7C0802F0E94D325812F0E94D8
:103150008D1DA0C0802F32EF931609F440C03915A1
:1031600038F090EF991661F0E1EF9E1699F174C076
:10317000F3EF9F16D9F124EF921609F44EC06CC0FC
:10318000BB2019F134E03A1508F480C01F7181E0CA
:1031900090E0A0E0B0E0AC01BD0104C0440F551FB9
:1031A000661F771F1A95D2F780912303909124030D
:1031B000A0912503B09126038A019B0108271927B6
:1031C0002A273B27C901B80125C025E02A1508F4A4
:1031D0005DC0DCCFBB2029F0812F8F7130C0BB20B8
:1031E000D9F3812F8F710E948D1D50C0BB2079F0C3
:1031F0001F7181E090E0A0E0B0E0BC01CD0104C00F
:10320000660F771F881F991F1A95D2F703C060E0D9
:1032100070E0CB010E94831D39C0BB2099F01F7163
:10322000812F0E94CF1D8091D50182FD07C038E01B
:10323000139FC001112483608093E702812F0E94B5
:10324000CF1D24C081E00E94B21D81E08A15F0F4F8
:1032500082E00E94B21D1AC0BB2039F0AA2009F4F6
:10326000BBCF802F0E941A2611C0AA2009F4B9CF23
:10327000893349F49FEFE7EEF3E09150E040F040EE
:10328000E1F700C00000802F0E94E82588EF8C0D38
:10329000843010F40E94D80CDD2009F4C0C0809165
:1032A000E70280FDBCC0F701128285958595859562
:1032B0000E94CF1DC7010E9435138091E7028595BA
:1032C0008595859529960FB6F894DEBF0FBECDBFC4
:1032D000DF91CF911F910F91FF90EF90DF90CF90F2
:1032E000BF90AF909F908F907F906F905F904F9026
:1032F0003F900C948D1D00318FE5180711F481E08B
:1033000006C001319FE5190709F023CB82E00E9436
:10331000CF1DF3CAC8012ACB20E230CB69E2E0CC52
:10332000073CFCE51F0709F45AC008F05DC045E7FB
:103330005FE06CE67FE06BC00D3C3CE5130709F4F1
:1033400069C060F40B3CECE51E0709F457C008F0B7
:103350005AC048E45FE06CE37FE059C0063D2CE5CD
:10336000120708F4CCCA0D351D4509F4C8CA0ECDA4
:103370008091330280FF1EC08E7F80933302609164
:1033800033027091340280913502909136020E948E
:103390003C0E8091E20181608093E2018FEF90E723
:1033A000E2E081509040E040E1F700C000000E9460
:1033B000D00DA5CA81608093330261E086952CC050
:1033C0004AEE5FE063EF7FE022C043EF5FE06AEE2A
:1033D0007FE01DC04CE65FE065E77FE018C044E594
:1033E0005FE060E67FE013C040E65FE064E57FE019
:1033F0000EC04CE35FE068E47FE009C04EE75FE0A9
:103400006FE87FE004C04FE85FE06EE77FE00E9476
:10341000B10D75CA61E081E00E94A00F70CA2996C3
:103420000FB6F894DEBF0FBECDBFDF91CF911F91D5
:103430000F91FF90EF90DF90CF90BF90AF909F9053
:103440008F907F906F905F904F903F900895089578
:103450008091F602089580E00895CF93DF9300D025
:103460001F92CDB7DEB790911903943011F589837F
:103470007B836A839093E9008FEF9091E8008150FD
:1034800095FD06C095ED9A95F1F700008111F5CFF5
:103490008091E80085FF0DC040E050E063E070E0FF
:1034A000CE0101960E94A7258091E8008E77809337
:1034B000E8000F900F900F90DF91CF910895BC011D
:1034C00084E00C942D1ABC0183E00C942D1ACF9348
:1034D000DF9320911701222339F02091D40127FF97
:1034E00003C060E224E002C068E021E02093E9002C
:1034F0002FEF3091E800215035FD06C035ED3A95AB
:10350000F1F700002111F5CF2091E80025FF1DC043
:10351000EC0180911701811105C040E050E068E0A6
:1035200070E003C070E040E050E0CE010E94A725AB
:103530008091E8008E778093E80080E2FE01A7EF9B
:10354000B2E001900D928A95E1F7DF91CF91089555
:1035500087E797E790930108809300089AE088E155
:103560000FB6F894A895809360000FBE909360000A
:10357000FFCF78941F920F920FB60F9211248F9362
:103580009F93AF93BF938091F0029091F102A0912D
:10359000F202B091F3020196A11DB11D8093F002D9
:1035A0009093F102A093F202B093F302BF91AF9116
:1035B0009F918F910F900FBE0F901F9018959C01B7
:1035C0004FB7F8948091F0029091F102A091F2022D
:1035D000B091F3024FBF821B930B08952FB7F8945D
:1035E0006091F0027091F1028091F2029091F302E9
:1035F0002FBF08950F931F930E940E10882321F070
:103600001F910F910C94EE1A0E94EE1A0091D001B6
:103610001091D1012091D2013091D301600F711F1F
:10362000821F931F1F910F910895CF92DF92EF9207
:10363000FF926B017C010E940E1081110EC00E944E
:10364000EE1AC61AD70AE80AF90AC092D001D09237
:10365000D101E092D201F092D301FF90EF90DF9080
:10366000CF9008952FB7F8948091F0029091F102D5
:10367000A091F202B091F3022FBF08951F920F9212
:103680000FB60F9211248F939F93AF93BF938091A6
:10369000E601811113C08091F0029091F102A09196
:1036A000F202B091F3024196A11DB11D8093F00288
:1036B0009093F102A093F202B093F302BF91AF9105
:1036C0009F918F910F900FBE0F901F901895209192
:1036D00017012223C9F02091D40127FF15C0262FFE
:1036E0002695269526952E31C8F4FC01E20FF11D92
:1036F000677081E090E001C0880F6A95EAF78095D5
:103700009281892382830895FC01069622816213A7
:1037100001C012823196E817F907C1F70895209188
:1037200017012223C1F02091D40127FF14C0262FB6
:103730002695269526952E3130F5FC01E20FF11DD8
:10374000677081E090E001C0880F6A95EAF7928186
:10375000892B82830895FC0132962FEF30E041914E
:10376000641789F02F3F19F4411101C0232F3F5FE7
:103770003630A9F72F3F39F0FC01E20FF11D27FD8C
:10378000FA95628308950895CF9384E090E00E94B3
:10379000872AC82F82E290E00E94872A2C2F30E0EF
:1037A000A901582BCA01CF9108956AEE7EEF80E0FF
:1037B00090E00E94B92A60E082E090E00E949B2A9B
:1037C00060E083E090E00E949B2A1092EC0210924D
:1037D000ED021092EE021092EF0260E084E090E0C1
:1037E0000E949B2A60E082E290E00E949B2A60E0B7
:1037F00085E090E00E949B2A60E086E090E00E94D5
:103800009B2A6FEF87E090E00E949B2A40E050E007
:10381000BA0188E090E00E94AD2A60E08DE090E07F
:103820000E949B2A40E050E0BA0188E190E00E94AB
:10383000AD2A60E087E190E00E949B2A40E050E0E2
:10384000BA018CE190E00E94AD2A60E070E080E275
:1038500090E00E94B92A40E050E0BA0188E190E08F
:103860000E94AD2A40E050E0BA018FE090E00E9453
:10387000AD2A40E050E0BA0183E190E00C94AD2A1B
:103880008091EB0281111092EB0208959091EA026F
:103890008091E902892B2091E802982F922B909336
:1038A00071028091EB028823D9F0892B80937102F9
:1038B00080911701882331F08091D40187FF02C0E5
:1038C0008EE101C086E0E3E7F2E090E0815028F06D
:1038D00021912223D9F39F5FF9CF91110E94401CBF
:1038E000E091E401F091E5013097A9F08091170192
:1038F000882359F08091D40187FF07C0809171021D
:103900008093720285E0809371020280F381E02D42
:1039100081E792E00994089580E090E00E94C20C53
:1039200080E090E00E94AC0C1092E9021092E80254
:103930000C94461CCF93C091D501C2FB992790F9F6
:10394000981781F080FBC2F9C093D5016091D40132
:1039500084E090E00E949B2A6C2F82E290E0CF915D
:103960000C949B2ACF910895BF92CF92DF92EF9251
:10397000FF920F931F93CF93DF938C01C09023038B
:10398000D0902403E0902503F09026038091EC0270
:103990009091ED02A091EE02B091EF02C82AD92ACF
:1039A000EA2AFB2ACFE1D0E0D701C6010C2E04C0E1
:1039B000B695A795979587950A94D2F780FD04C090
:1039C000219790F7B12C07C0BC2EB8018C2F0E9414
:1039D00048100197A9F38B2DDF91CF911F910F9183
:1039E000FF90EF90DF90CF90BF900895CF93DF933B
:1039F000EC010E94B41CBE010E944810DF91CF91DF
:103A000008950E94F61C292F2F70E92FE295EF7080
:103A10004E2F50E0FA013297EE30F105B8F4EC5732
:103A2000FF4F0C94EF2A803F99F018F4883E70F411
:103A30000FC0843F59F40CC0883E50F0813F31F4F0
:103A400007C0822F869586958695089580E0089513
:103A500081E00895292F220F920F990F890F682F67
:103A6000669566956695982F977085E0689FB0017A
:103A7000112440E050E080E0FB01E40FF51FE75324
:103A8000FD4F208130E0092E02C0369527950A941B
:103A9000E2F721703327042E01C0220F0A94EAF7BF
:103AA000822B4F5F5F4F4530510531F70895292F25
:103AB000220F920F990F890FE82FE695E695E6956C
:103AC000877051E001C0550F8A95EAF785E0E89FBD
:103AD000F0011124E753FD4F20E030E070E0408119
:103AE000CB01022E02C0969587950A94E2F7817069
:103AF000819584278523842781932F5F3F4F25302D
:103B0000310569F70895609323037093240380932C
:103B10002503909326030C948C1C0F931F9341E074
:103B200050E060E070E004C0440F551F661F771F2F
:103B30008A95D2F7409550956095709580912303B2
:103B400090912403A0912503B09126038A019B0143
:103B5000082319232A233B23C901B8011F910F9180
:103B60000C94831D2091E702809582238093E702C5
:103B7000982F977041F430E0482F082E000C550B19
:103B80002417350721F49091D50192FF07C0859540
:103B9000859585950E948D1D1092E70208950F93DB
:103BA0001F9341E050E060E070E004C0440F551FF7
:103BB000661F771F8A95D2F7809123039091240383
:103BC000A0912503B09126038A019B01082B192B94
:103BD0002A2B3B2BC901B8011F910F910C94831D17
:103BE0006093EC027093ED028093EE029093EF02EB
:103BF0000C948C1C8091C80290919702891719F03F
:103C00008F5F8770FBCF08950F931F93CF93DF9340
:103C10008091960282958F7009F05DC08091930229
:103C2000882309F458C08091C802109197026091CE
:103C3000910270919202C0919402D091950291E00C
:103C40006F3F09F090E0292F06E0811709F443C087
:103C5000209721F07F3F21F030E003C031E001C028
:103C6000322F90E030FD34C0089FF001099FF00D25
:103C70001124DF01A856BD4F11963C9111973713BF
:103C800027C03C91361324C012963C9112973111F3
:103C90001FC013964D915C9114974C1B5D0B483CD3
:103CA0005105B0F4809196028F70806180939602E6
:103CB000E356FD4F80818F708061808381E992E0BF
:103CC0000E943513DF91CF911F910F910C94FA1D33
:103CD00001968770BACFDF91CF911F910F91089510
:103CE0009F92AF92BF92CF92DF92EF92FF920F938B
:103CF0001F93CF93DF93CDB7DEB761970FB6F894DC
:103D0000DEBF0FBECDBF8C0185E0F801DE011D9640
:103D100001900D928A95E1F7F80190818181E2800E
:103D200030919102609192024091940250919502DB
:103D30004115510531F06F3F31F421E03F3F19F457
:103D400003C021E001C020E0F22FF1709F2E20FD82
:103D500023C1F801C380D48021E9A22E22E0B22E33
:103D6000F0909302F601E41BF50BFF2009F4CEC09E
:103D700020919602E83CF10508F099C0422F407F5F
:103D800009F051C0681311C039130FC0FE2CE110A7
:103D90000CC02F70206120939602C5010E9435133C
:103DA00080919602F801858337C1CD2831F08F3F8D
:103DB00031F421E09F3F19F403C021E001C020E06D
:103DC00020FD03C021E02E2502C020E030E0F22FCC
:103DD000F170FF2E20FF1DC02091C8024091970274
:103DE00056E0241709F4F6C030E0529FF001539FCB
:103DF000F00D1124E856FD4F6181861306C06081E5
:103E0000961303C06281E61204C02F5F3F4F2770F4
:103E1000E8CFFE2CEE2009F4FFC08091960281606D
:103E20008093960250C0681307C0391305C0E11093
:103E300003C0F80125838DC09D878E878D859E8563
:103E40000E94011D882369F1EE2059F1209196020C
:103E5000822F82958F7090E0029774F0809191028A
:103E60009091920298878F831986DB86CA862C8769
:103E7000CE0107960E94351386E0F801A1E9B2E071
:103E800001900D928A95E1F70E94041E0DC06817FB
:103E9000E1F09D878E878D859E850E94011D811191
:103EA0001EC0C8010E943513FF24F394B5C0422FF1
:103EB000407F69F781E992E00E94351386E0F501C1
:103EC00011928A95E9F7F12CA7C03913E2CFE110DE
:103ED000E0CFF8012583C8010E94351357C0EE20BA
:103EE00001F320919602822F82958F7090E00297C5
:103EF0001CF280919102909192029A8389831B8295
:103F0000DD82CC822E83CE010196B4CFE83CF10550
:103F1000E8F5FE2CEE2029F2681327C0391325C0DE
:103F20002091960220FD18C0822F82958F70482F15
:103F300050E04115510581F0F80125834F305105BE
:103F400041F08F5F982F9295907F822F8F70892BF1
:103F50008583C8010E94351386E0F801A1E9B2E02B
:103F600001900D928A95E1F757C09D878E878D85C8
:103F70009E850E94011D81117FCF809196028160F4
:103F800080939602C8010E94351346C086E0F50171
:103F900011928A95E9F740C0EE2009F482CF9D87FF
:103FA0008E878D859E850E94011DF82E882309F439
:103FB00078CF86E0F801A1E9B2E001900D928A95F0
:103FC000E1F780919102909192020E94F61C0E946A
:103FD000041E22C09D878E878D859E850E94F61CBB
:103FE000292F22952F70223028F49F7039F08111EB
:103FF00005C00BC0243028F49F7049F4805E8830DF
:1040000020F0C8010E9435139F2CF92C05C0F8013F
:104010009581907F99F7F9CF8F2D61960FB6F8941F
:10402000DEBF0FBECDBFDF91CF911F910F91FF90EB
:10403000EF90DF90CF90BF90AF909F900895109237
:10404000EA0280911701882331F08091D40187FF23
:1040500002C08EE101C086E0E3E7F2E0DF011D92DD
:104060008A95E9F70C948C1CCF93DF938A3011F476
:1040700081E003C08D3029F480E0DF91CF910C9472
:104080000A0D682F809130059091310526E0FC01E2
:10409000AAE2B5E001900D922A95E1F7603E30F07A
:1040A00026E0FC0111922A95E9F70AC0F6E06F9F1D
:1040B000B0011124615B794F46E050E00E947E2AF6
:1040C000C0913005D091310546E050E0BE018AE252
:1040D00095E00E94FC2A892B49F19E012A52334027
:1040E000A90185E0569547958A95E1F781E090E032
:1040F000BC0102C0660F771F4A95E2F74091280382
:1041000050912903462B572B2B5F3F4F65E0369587
:1041100027956A95E1F702C0880F991F2A95E2F763
:10412000842B952B90932903809328039E0124527E
:10413000334040912703642F70E0C9010E94DB2ABD
:10414000481B463010F4240F311D211582E038073A
:1041500010F020E030E0265D3C4F30933105209395
:104160003005DF91CF910895CF93DF93EC01FE01ED
:104170008491882321F00E9434202196F8CFDF918A
:10418000CF9108950F931F9380912303909124035F
:10419000A0912503B09126038C019D010670112783
:1041A00022273327BC01CD01063011052105310539
:1041B00011F4686001C0677F1F910F910C94831DFB
:1041C000EF92FF920F931F93CF93DF93EC017B014C
:1041D00064E670E088E70E94DA278C01EC0EFD1E91
:1041E000CE15DF0561F017FD0AC0FE01849164E67B
:1041F00070E00E9431288C012196892B89F30E945E
:10420000B528C801DF91CF911F910F91FF90EF90DA
:1042100008951F93CF93DF93CDB7DEB7AA970FB65C
:10422000F894DEBF0FBECDBFEBE1F3E08091F1006B
:10423000819343E0E332F407C9F780911C03833094
:1042400009F462C030F4813071F0823009F49CC00E
:10425000B3C08A3009F488C08B3009F46DC089304E
:1042600009F0AAC020C080911B03813A09F0A4C0C4
:104270008091E800877F8093E80080911F039091F0
:104280002003892B21F460E287EF92E003C060E015
:1042900080E090E070E00E94FF268091E8008B773C
:1042A0008093E80089C080911B03813209F084C0AB
:1042B00080911F0390912003009719F0029709F055
:1042C0007BC08091E800877F8093E8008091E800C0
:1042D00082FD05C0809119038111F8CF6DC0209136
:1042E000F3008091F20090E0922B029729F48091E4
:1042F000F1008B7F813021F48091F1008093F602F0
:104300008091E8008B7754C080911B03813A09F0BB
:1043100053C080911F0390912003892B09F04CC05A
:104320008091E800877F8093E8008091E80080FF1B
:10433000FCCF8091170137C080911B038132E1F5DA
:1043400080911F0390912003892BB1F58091E800A3
:10435000877F8093E8000E94AB2680911D038093A5
:1043600017010E941F2028C080911B03813221F574
:104370008091E800877F8093E8000E94AB268091BF
:104380001E038093F50218C080911B03813AA1F4AB
:104390008091E800877F8093E8008091E80080FFAB
:1043A000FCCF8091F5028093F1008091E8008E7738
:1043B0008093E8000E94AB268091E80083FFDDC176
:1043C00080911B0390911C03492F50E04A30510506
:1043D00008F0D3C1FA01EE56FF4F0C94EF2A803853
:1043E00021F0823809F0C9C108C08091170390916B
:1043F0001803992389F082600FC080911F038F708A
:10440000873008F0BAC18093E9008091EB0085FB0A
:10441000882780F91092E9009091E800977F9093A7
:10442000E8008093F1001092F10070C1282F2D7FD9
:1044300009F0A3C1882319F0823061F09EC18091F8
:104440001D03813009F099C1933009F080E0809319
:1044500018032EC080911D0381112AC080911F0373
:104460008F702FEF280F263008F087C18093E90066
:104470002091EB0020FF1CC0933021F48091EB00D1
:10448000806214C09091EB0090619093EB0021E06A
:1044900030E0A90102C0440F551F8A95E2F740930E
:1044A000EA001092EA008091EB0088608093EB00B4
:1044B0001092E9008091E800877F8093E8000E94D5
:1044C000AB265BC1811159C110911D031F778091EB
:1044D000E3008078812B8093E3008091E800877F60
:1044E0008093E8000E94AB268091E80080FFFCCF1B
:1044F0008091E30080688093E300111102C082E0A4
:1045000001C083E08093190338C18058823008F0DD
:1045100034C120911D0330911E032C3D53E035071B
:1045200079F583E08A838AE289834FB7F894DE01C4
:10453000139620E03EE051E2E32FF0E05093570065
:10454000E49120FF03C0E295EF703F5FEF708E2F84
:1045500090E0EA3010F0C79601C0C0968D939D930D
:104560002F5F243149F74FBF8091E800877F809308
:10457000E8006AE270E0CE0101960E94FF26B4C016
:1045800080911F0390912003432F552743305105FD
:10459000A9F068F44130510509F4FEC042305105DC
:1045A00009F0EBC08BE590E0EEEBF5E04BC041325B
:1045B000510529F14232510589F1DFC0C90199271E
:1045C00081309105A1F058F0029709F0D6C0EBE2D6
:1045D000F6E0E4918E2F90E0EBE2F6E030C0EBE401
:1045E000F6E0E4918E2F90E0EBE4F6E028C0E9E3FA
:1045F000F6E0E4918E2F90E0E9E3F6E020C083300E
:10460000910508F0BAC0880F991FFC01EA56FE4FC9
:104610000190F081E02D89E090E014C08330910595
:1046200008F0ABC0FC01EE0FFF1FE057FE4F0190FA
:10463000F081E02DDC01A357BE4F8C9190E00097F4
:1046400009F49BC02091E800277F2093E800209187
:104650002103309122032817390708F4C90140E0EB
:10466000009789F120911903222309F43DC02530D8
:10467000D9F12091E80023FD37C02091E80022FD08
:104680002FC02091E80020FFEBCF4091F300209154
:10469000F20030E0342B009759F02830310540F417
:1046A00044914093F100319601972F5F3F4FF3CF34
:1046B00041E02830310509F040E02091E8002E77F4
:1046C0002093E800CDCF4111CDCF0AC080911903CE
:1046D000882351F0853041F08091E80083FD04C0CB
:1046E0008091E80082FFF2CF8091E8008B77809381
:1046F000E80043C0803809F040C08091E800877F1F
:104700008093E80080911A038093F1008091E80083
:104710008E77D3CE811131C080911D0390911E03FD
:104720009927029754F58091E800877F8093E800ED
:1047300010911D0310931A030E94AB26111106C09D
:104740008091E30087FD02C081E001C084E0809396
:10475000190342E061EC81E00E94CA2642E261EC6A
:1047600084E00E94CA2642E261EC82E00E94CA26EE
:1047700042E260EC83E00E94CA268091E80083FF59
:1047800010C08091E800877F8093E8008091EB0063
:1047900080628093EB0005C082E190E0E9E1F6E001
:1047A00051CFAA960FB6F894DEBF0FBECDBFDF91F2
:1047B000CF911F9108951F920F920FB60F9211245F
:1047C0002F933F934F935F936F937F938F939F9319
:1047D000AF93BF93CF93DF93EF93FF93C091E90023
:1047E000CF708091EC00D82FD17080FDD0E810926E
:1047F000E9008091F000877F8093F00078940E9418
:1048000009211092E9008091F00088608093F00007
:10481000CD2BCF70C093E900FF91EF91DF91CF9145
:10482000BF91AF919F918F917F916F915F914F91C8
:104830003F912F910F900FBE0F901F901895E8EDAC
:10484000F0E080818E7F80831092E2001092DA0087
:104850001092E100A0EEB0E08C9181608C93808199
:104860008F77808319BCA7EDB0E08C918E7F8C93FD
:1048700080818F7E80831092F4020895CF92DF9220
:10488000EF92FF920F931F93CF93DF93C8EDD0E089
:1048900088818F7E8883E7EDF0E08081816080836E
:1048A00084E082BF81E08093F40288818E7F8883D8
:1048B00002EE10E0F80110821092DA0081EEC82EAC
:1048C000D12CF601108288818F7788838881806857
:1048D000888388818F7D888319BC10921903109278
:1048E0001A03109218031092170390EEE92EF12C80
:1048F000F70180818B7F808388818160888342E09B
:1049000060E080E00E94CA26F60180818E7F80836D
:10491000F801808181608083808188608083F701D5
:1049200080818E7F8083888180618883DF91CF91B1
:104930001F910F91FF90EF90DF90CF9008951F92FD
:104940000F920FB60F9211242F933F934F935F93C3
:104950006F937F938F939F93AF93BF93EF93FF9347
:104960008091E10082FF09C08091E20082FF05C0D2
:104970008091E1008B7F8093E1008091DA0080FFDD
:104980002AC08091D80080FF26C08091DA008E7FF7
:104990008093DA008091D90080FF18C080E189BD42
:1049A00082E189BD09B400FEFDCF81E08093190347
:1049B0008091F40281110FC00E941F240E943E24A6
:1049C0008091E20084608093E20005C019BC1092DF
:1049D00019031092F4028091E10080FF17C08091CA
:1049E000E20080FF13C08091E2008E7F8093E2009E
:1049F0008091E20080618093E2008091D800806223
:104A00008093D80019BC85E0809319038091E10060
:104A100084FF2EC08091E20084FF2AC080E189BD1E
:104A200082E189BD09B400FEFDCF8091D8008F7D61
:104A30008093D8008091E1008F7E8093E100809187
:104A4000E2008F7E8093E2008091E200816080939B
:104A5000E20080911A03882311F084E007C080915E
:104A6000E30087FD02C081E001C083E08093190369
:104A70008091E10083FF27C08091E20083FF23C083
:104A80008091E100877F8093E10082E080931903A9
:104A900010921A038091E1008E7F8093E100809153
:104AA000E2008E7F8093E2008091E200806180933B
:104AB000E20042E060E080E00E94CA268091F000BF
:104AC00088608093F000FF91EF91BF91AF919F912B
:104AD0008F917F916F915F914F913F912F910F90A7
:104AE0000FBE0F901F9018952091E4003091E500C3
:104AF00095E64091EC00842F817040FF23C08091A7
:104B0000E80080FD1DC080911903882399F085304D
:104B100099F08091EB0085FD11C04091E400509127
:104B2000E5002417350729F3915011F09A01E1CFE0
:104B300084E0089582E0089583E0089581E0089577
:104B400080E008954091E80042FFDDCF0895EF92A4
:104B5000FF920F931F93CF93DF937C018B010E94F1
:104B60007425811119C0E70101151105A1F080918B
:104B7000E80085FD0AC08091E8008E778093E80008
:104B80000E947425882381F307C089918093F100E6
:104B900001501109E9CF80E0DF91CF911F910F9172
:104BA000FF90EF900895882341F080959091EA025C
:104BB00089238093EA020C94461C0895882339F0D7
:104BC0009091EA02892B8093EA020C94461C089586
:104BD000882379F19CEF980F913A30F4682F81E7A0
:104BE00092E00E94671B14C090E2980F983090F4F6
:104BF000877021E030E0A90102C0440F551F8A955B
:104C0000E2F7CA0180959091EA0289238093EA0233
:104C10000C94461C9BE5980F933020F480E090E0C4
:104C20000C94C20C885A873120F480E090E00C94F8
:104C3000AC0C0895CF93882309F46DC09CEF980FB6
:104C4000913AC8F5C82F809117018823E1F080912F
:104C5000D40187FF18C0EC2FE695E695E695F0E0C5
:104C6000EF58FD4F8281282F30E04C2F477081E0B4
:104C700090E002C0880F991F4A95E2F782239323A0
:104C8000892B61F412C0E3E7F2E089E792E0219119
:104C9000C21721F08E179F07D1F707C06C2F81E74D
:104CA00092E00E94671B0E94461C6C2F81E792E0F5
:104CB0000E948F1B13C090E2980F983090F4877079
:104CC00021E030E0A90102C0440F551F8A95E2F7A8
:104CD000CA019091EA02892B8093EA02CF910C9449
:104CE000461CEBE5E80FE33040F4F0E0E456FE4FFD
:104CF000808190E0CF910C94C20C885A873158F48F
:104D0000E82FF0E0EE0FFF1FE156FE4F808191810A
:104D1000CF910C94AC0CCF9108951F93CF93DF9358
:104D2000182F893319F0C0E0D0E002C0C0E5D0E010
:104D3000812F0E941A26209741F08FE99FE001976A
:104D4000F1F700C000002197F6CF812FDF91CF91BE
:104D50001F910C94E82580911B0387FF11C080915F
:104D6000E80082FD05C0809119038111F8CF11C0C0
:104D70008091E8008B770BC080911903882349F05C
:104D80008091E80080FFF8CF8091E8008E778093D3
:104D9000E8000895982F973068F59093E9009817E8
:104DA00039F07091EC002091ED005091F00003C0BB
:104DB000242F762F50E021FD02C09F5FECCF309171
:104DC000EB003E7F3093EB003091ED003D7F309360
:104DD000ED003091EB0031603093EB007093EC000C
:104DE0002093ED005093F0002091EE0027FDE5CFD9
:104DF00080E008958F708093E90081E0089520910C
:104E00002103309122032617370748F061157105F9
:104E100039F42091E8002E772093E80001C0B90111
:104E2000FC0120E06115710579F180911903882357
:104E3000F1F18530F1F18091E80083FD3CC0809173
:104E4000E80082FD2EC08091E80080FFEBCF20912A
:104E5000F3008091F20090E0922B6115710551F002
:104E60008830910538F421912093F1006150710947
:104E70000196F3CF21E0089709F020E08091E80047
:104E80008E778093E800CECF2111CFCF0AC08091DA
:104E90001903882361F0853061F08091E80083FD7B
:104EA0000AC08091E80082FFF2CF80E0089582E09E
:104EB000089583E0089581E0089562E070E088E15C
:104EC00091E00C94192962E070E088E191E00C9483
:104ED00022290E94CD0D882361F08CE395E00E9489
:104EE000B70D81E090E00E94FB29892B11F40C940E
:104EF000CA0D089580913B05883039F460E08CE359
:104F000095E00E94C30F10923B050895CF93DF9365
:104F1000D62FC72F0E94692780E090E00E94FB29CE
:104F2000892BF1F4ED2FFC2F80E090E0DC01A95CEF
:104F3000BA4F2C912193019684309105B9F70E94C4
:104F4000FA1ADC01CB010296A11DB11D8093330535
:104F500090933405A0933505B093360581E001C0E8
:104F600080E0DF91CF910895CF93DF93D62FC72FA5
:104F70000E947A2760913305709134058091350540
:104F8000909136050E94151BED2FFC2F80E090E0DC
:104F90002191DC01A95CBA4F2C93019684309105D4
:104FA000B9F7DF91CF9108951092B9008CE080930A
:104FB000B8000895EF92FF920F931F93CF93DF9362
:104FC000182FEB011092BC0084EA8093BC000E9471
:104FD000321B7C018091BC0087FD0EC0CF3F8FEF5C
:104FE000D807C1F30E94321B8E199F098C179D07A9
:104FF00088F38EEF9FEF2EC08091B900887F8830B4
:1050000041F08091B900887F803119F08FEF9FEFD8
:1050100021C01093BB0084E88093BC000E94321B27
:105020008C018091BC0087FD0CC0CF3F8FEFD8076B
:10503000C1F30E94321B801B910B8C179D0788F3D4
:10504000D8CF8091B900887F883111F08034F1F693
:1050500080E090E0DF91CF911F910F91FF90EF9052
:1050600008950F931F93CF93DF93EB018093BB00C1
:1050700084E88093BC000E94321B8C018091BC00AC
:1050800087FD0EC0CF3F8FEFD807C1F30E94321BC0
:10509000801B910B8C179D0788F38EEF9FEF0CC040
:1050A0002091B900287F81E090E0283211F480E05F
:1050B00090E0919581959109DF91CF911F910F918A
:1050C0000895CF92DF92EF92FF920F931F93CF93A9
:1050D000DF936B018A017901B9010E94DA27E601A9
:1050E0000C0D1D1DC017D10761F424E92093BC00ED
:1050F000DF91CF911F910F91FF90EF90DF90CF90B4
:10510000089597FDF2CFB70189910E943128EACF27
:10511000CF92DF92EF92FF920F931F93CF93DF9383
:10512000C62F6A017901B8010E94DA2797FD11C0E4
:10513000B8018C2F0E943128E601EC0CFD1CCE1525
:10514000DF0539F097FD05C0B80189910E9431282B
:10515000F6CF24E92093BC00DF91CF911F910F91EE
:10516000FF90EF90DF90CF90089584E98093BC008A
:1051700008958EE14A9B02C08150E1F74A9BFECF21
:1051800008955A9880E28A95F1F75A9A0895FC0199
:105190002AE02A95F1F790E020E080E031E0261740
:1051A00079F040E14A95F1F7880F4A9B02C081608F
:1051B000932700C0000040E14A95F1F72F5FEFCF41
:1051C00020E12A95F1F729B100C0000030E13A95BD
:1051D000F1F722FB222720F992272081920F90835A
:1051E0000895EF92FF920F931F93CF93DF931F9237
:1051F000CDB7DEB719828C017C01E60EF11C0E15CD
:105200001F0559F00E94B92868E0CE0101960E945E
:10521000C728F80181938F01F2CF81E09981911124
:1052200080E00F90DF91CF911F910F91FF90EF9051
:105230000895909346058093450560934405529ADE
:105240005A9A0895909346058093450560934405C6
:1052500052985A9AEA9AE9E6F0E080818F7C80833E
:105260000895615091E001C0990F6A95EAF720E036
:1052700031E0992361F0492F482319F05A9A2327E6
:1052800001C05A9840E24A95F1F79695F2CF222351
:1052900011F05A9A01C05A9880E28A95F1F75A980B
:1052A0000895FF920F931F93CF93DF93EC018C012E
:1052B000060F111DC017D10741F0F9900E94C128B7
:1052C00068E08F2D0E943129F5CFDF91CF911F919A
:1052D0000F91FF9008951F920F920FB60F92112415
:1052E0000F931F932F933F934F935F936F937F93EE
:1052F0008F939F93AF93BF93EF93FF93CF93DF93DE
:105300001F92CDB7DEB719820E94B92867E0CE019F
:1053100001960E94C728382F369536953695932FDB
:1053200096959570232F2570920F292F23709695AF
:1053300096958770920F891348C08981811145C065
:1053400080914405831708F440C080E18A95F1F705
:105350005A9A529AA2E0AA95F1F700C00091450529
:1053600010914605B8E03B9F000D111D11245A987D
:10537000F8016581662321F0868197810E94512979
:105380000E94C128F0E1FA95F1F75A9852985A9A7A
:1053900080E18A95F1F7D80112966C9112976623F5
:1053A00069F013968D919C9114970E94F128D80171
:1053B000ED91FC91811105C082E004C0D801ED910E
:1053C000FC9188E080830E94B9280F90DF91CF91F3
:1053D000FF91EF91BF91AF919F918F917F916F91CD
:1053E0005F914F913F912F911F910F910F900FBEA1
:1053F0000F901F9018950F931F93CF93DF932091D9
:10540000440530E0281739070CF471C09C0193E083
:10541000220F331F9A95E1F7C0914505D0914605BB
:10542000C20FD31FF894529A5A9845E04A95F1F763
:105430000000982F969595708570890F982F93701E
:1054400086958695890F8901082B0E94C12884E0E2
:105450008A95F1F700C067E0802F0E94312940E172
:105460004A95F1F752985A9A4A9902C000C0FCCF67
:1054700087E090E04A9B0EC0019751F4529A5A9AE5
:10548000E881F98181E08083789481E090E031C007
:1054900000C0F0CF6D81662381F08E819F810E94D4
:1054A000F12881110AC0529A5A9AE881F98182E062
:1054B0008083789482E090E01CC00E94B92880E24A
:1054C0008A95F1F75A98529A40E14A95F1F76A8124
:1054D000662321F08B819C810E9451290E94C12862
:1054E000E881F9811082789480E090E002C084E045
:1054F00090E0DF91CF911F910F910895FB01DC01A6
:1055000002C005900D9241505040D8F70895F99986
:10551000FECF92BD81BDF89A992780B50895A6E186
:10552000B0E044E050E00C94C12AA8E1B0E042E0D1
:1055300050E00C94C12A262FF999FECF92BD81BD6F
:10554000F89A019700B4021639F01FBA20BD0FB6C1
:10555000F894FA9AF99A0FBE08950396272F0E949D
:105560009C2A0E949B2A252F0E949C2A242F0C945F
:105570009C2A0196272F0E949C2A0C949B2ADC01CE
:10558000CB01FC01F999FECF06C0F2BDE1BDF89A4E
:10559000319600B40D9241505040B8F70895991BD0
:1055A00079E004C0991F961708F0961B881F7A951A
:1055B000C9F780950895AA1BBB1B51E107C0AA1F1C
:1055C000BB1FA617B70710F0A61BB70B881F991FA4
:1055D0005A95A9F780959095BC01CD010895EE0FDD
:1055E000FF1F0590F491E02D0994692796276927FC
:1055F0007827872778270895FB01DC0104C08D9167
:105600000190801921F441505040C8F7881B990B34
:105610000895AEE0B0E0EFE0FBE20C94D82D0D89E8
:105620001E898F89988D26E02C831A83098397FF22
:1056300002C080E090E801979E838D83AE01455EB5
:105640005F4F698D7A8DCE0101960E94392B4D8175
:105650005E8157FD0AC02F813885421753070CF42D
:105660009A01F801E20FF31F10822E96E4E00C94E9
:10567000F42DABE0B0E0EFE3FBE20C94CA2D6C013B
:105680007B018A01FC0117821682838181FFCCC1D4
:10569000CE0101963C01F6019381F70193FD8591BE
:1056A00093FF81917F01882309F4BAC1853239F4CF
:1056B00093FD859193FF81917F01853229F4B60195
:1056C00090E00E94302DE7CF912C212C312CFFE16E
:1056D000F315D8F08B3279F038F4803279F08332D8
:1056E000A1F4232D20611DC08D3261F0803369F457
:1056F000232D216016C0832D8260382EE32DE460B7
:105700003E2E2AC0F32DF8601DC037FC2DC020EDC1
:10571000280F2A3040F08E32B9F436FC81C1232D97
:105720002064322E19C036FE06C08AE0989E200DF5
:105730001124922E11C0EAE02E9E200D1124222E5B
:10574000F32DF0623F2E08C08C3621F4832D806843
:10575000382E02C0883641F4F70193FD859193FFFE
:1057600081917F018111B3CF982F9F7D9554933004
:1057700028F40C5F1F4F9FE399830DC0833631F0EF
:10578000833771F0833509F059C021C0F801808159
:1057900089830E5F1F4F88248394912C530113C07B
:1057A0002801F2E04F0E511CF801A080B18036FEB6
:1057B00003C0692D70E002C06FEF7FEFC5010E944A
:1057C000252D4C018201F32DFF773F2E16C02801B5
:1057D00022E0420E511CF801A080B18036FE03C0C9
:1057E000692D70E002C06FEF7FEFC5010E941A2D96
:1057F0004C01F32DF0683F2E820133FC1BC0822D3B
:1058000090E088169906B0F4B60180E290E00E941C
:10581000302D2A94F4CFF50137FC859137FE819124
:105820005F01B60190E00E94302D21102A9421E002
:10583000821A91088114910471F7E8C0843611F03E
:10584000893641F5F80137FE07C060817181828198
:1058500093810C5F1F4F08C060817181072E000C7F
:10586000880B990B0E5F1F4FF32DFF763F2E97FF8E
:1058700009C090958095709561957F4F8F4F9F4F90
:10588000F0683F2E2AE030E0A3010E946C2D882EA4
:10589000861845C0853731F4232D2F7EB22E2AE09D
:1058A00030E025C0932D997FB92E8F36C1F018F4C2
:1058B000883579F0B5C0803719F0883721F0B0C04D
:1058C000E92FE061BE2EB4FE0DC0FB2DF460BF2EAB
:1058D00009C034FE0AC0292F2660B22E06C028E077
:1058E00030E005C020E130E002C020E132E0F80104
:1058F000B7FE07C060817181828193810C5F1F4F69
:1059000006C06081718180E090E00E5F1F4FA301AF
:105910000E946C2D882E8618FB2DFF773F2E36FEB9
:105920000DC0232D2E7FA22E891458F434FE0BC0F7
:1059300032FC09C0832D8E7EA82E05C0B82CA32C66
:1059400003C0B82C01C0B92CA4FE0FC0FE01E80DA5
:10595000F11D8081803321F49A2D997EA92E09C0F2
:10596000A2FE06C0B394B39404C08A2D867809F0D1
:10597000B394A3FC11C0A0FE06C0B21488F4280C96
:10598000922C9B180EC0B21460F4B60180E290E035
:105990000E94302DB394F7CFB21418F42B1802C024
:1059A000982C212CA4FE10C0B60180E390E00E9448
:1059B000302DA2FE17C0A1FC03C088E790E002C012
:1059C00088E590E0B6010CC08A2D867859F0A1FEDA
:1059D00002C08BE201C080E2A7FC8DE2B60190E03C
:1059E0000E94302D891438F4B60180E390E00E94C3
:1059F000302D9A94F7CF8A94F301E80DF11D808140
:105A0000B60190E00E94302D8110F5CF222009F4DC
:105A100042CEB60180E290E00E94302D2A94F6CF6B
:105A2000F6018681978102C08FEF9FEF2B96E2E10E
:105A30000C94E62DFC010590615070400110D8F7E0
:105A4000809590958E0F9F1F0895FC0161507040C6
:105A500001900110D8F7809590958E0F9F1F0895A3
:105A60000F931F93CF93DF93FB01238121FD03C08D
:105A70008FEF9FEF2CC022FF16C0468157812481F3
:105A800035814217530744F4A081B1819D012F5FF6
:105A90003F4F318320838C93268137812F5F3F4F87
:105AA0003783268314C08B01EC01FB010084F18550
:105AB000E02D0995892BE1F6D80116968D919C91E0
:105AC0001797019617969C938E931697CE01DF91A8
:105AD000CF911F910F910895FA01AA27283051F113
